{
  "contractName": "Dex",
  "abi": [
    {
      "anonymous": false,
      "inputs": [
        {
          "indexed": true,
          "internalType": "address",
          "name": "previousOwner",
          "type": "address"
        },
        {
          "indexed": true,
          "internalType": "address",
          "name": "newOwner",
          "type": "address"
        }
      ],
      "name": "OwnershipTransferred",
      "type": "event"
    },
    {
      "inputs": [
        {
          "internalType": "bytes32",
          "name": "_ticker",
          "type": "bytes32"
        },
        {
          "internalType": "address",
          "name": "_tokenAddress",
          "type": "address"
        }
      ],
      "name": "addToken",
      "outputs": [],
      "stateMutability": "nonpayable",
      "type": "function"
    },
    {
      "inputs": [
        {
          "internalType": "address",
          "name": "",
          "type": "address"
        },
        {
          "internalType": "bytes32",
          "name": "",
          "type": "bytes32"
        }
      ],
      "name": "balances",
      "outputs": [
        {
          "internalType": "uint256",
          "name": "",
          "type": "uint256"
        }
      ],
      "stateMutability": "view",
      "type": "function",
      "constant": true
    },
    {
      "inputs": [
        {
          "internalType": "uint256",
          "name": "_amount",
          "type": "uint256"
        },
        {
          "internalType": "bytes32",
          "name": "_ticker",
          "type": "bytes32"
        }
      ],
      "name": "deposit",
      "outputs": [],
      "stateMutability": "nonpayable",
      "type": "function"
    },
    {
      "inputs": [],
      "name": "depositEth",
      "outputs": [],
      "stateMutability": "payable",
      "type": "function",
      "payable": true
    },
    {
      "inputs": [
        {
          "internalType": "bytes32",
          "name": "",
          "type": "bytes32"
        },
        {
          "internalType": "uint256",
          "name": "",
          "type": "uint256"
        },
        {
          "internalType": "uint256",
          "name": "",
          "type": "uint256"
        }
      ],
      "name": "orderBook",
      "outputs": [
        {
          "internalType": "uint256",
          "name": "id",
          "type": "uint256"
        },
        {
          "internalType": "address",
          "name": "trader",
          "type": "address"
        },
        {
          "internalType": "enum Dex.Side",
          "name": "side",
          "type": "uint8"
        },
        {
          "internalType": "bytes32",
          "name": "ticker",
          "type": "bytes32"
        },
        {
          "internalType": "uint256",
          "name": "amount",
          "type": "uint256"
        },
        {
          "internalType": "uint256",
          "name": "price",
          "type": "uint256"
        }
      ],
      "stateMutability": "view",
      "type": "function",
      "constant": true
    },
    {
      "inputs": [],
      "name": "orderId",
      "outputs": [
        {
          "internalType": "uint256",
          "name": "",
          "type": "uint256"
        }
      ],
      "stateMutability": "view",
      "type": "function",
      "constant": true
    },
    {
      "inputs": [],
      "name": "owner",
      "outputs": [
        {
          "internalType": "address",
          "name": "",
          "type": "address"
        }
      ],
      "stateMutability": "view",
      "type": "function",
      "constant": true
    },
    {
      "inputs": [],
      "name": "renounceOwnership",
      "outputs": [],
      "stateMutability": "nonpayable",
      "type": "function"
    },
    {
      "inputs": [
        {
          "internalType": "uint256",
          "name": "",
          "type": "uint256"
        }
      ],
      "name": "tokenList",
      "outputs": [
        {
          "internalType": "bytes32",
          "name": "",
          "type": "bytes32"
        }
      ],
      "stateMutability": "view",
      "type": "function",
      "constant": true
    },
    {
      "inputs": [
        {
          "internalType": "bytes32",
          "name": "",
          "type": "bytes32"
        }
      ],
      "name": "tokenMapping",
      "outputs": [
        {
          "internalType": "bytes32",
          "name": "ticker",
          "type": "bytes32"
        },
        {
          "internalType": "address",
          "name": "tokenAddress",
          "type": "address"
        }
      ],
      "stateMutability": "view",
      "type": "function",
      "constant": true
    },
    {
      "inputs": [
        {
          "internalType": "address",
          "name": "newOwner",
          "type": "address"
        }
      ],
      "name": "transferOwnership",
      "outputs": [],
      "stateMutability": "nonpayable",
      "type": "function"
    },
    {
      "inputs": [
        {
          "internalType": "uint256",
          "name": "_amount",
          "type": "uint256"
        },
        {
          "internalType": "bytes32",
          "name": "_ticker",
          "type": "bytes32"
        }
      ],
      "name": "withdraw",
      "outputs": [],
      "stateMutability": "nonpayable",
      "type": "function"
    },
    {
      "inputs": [
        {
          "internalType": "bytes32",
          "name": "ticker",
          "type": "bytes32"
        },
        {
          "internalType": "enum Dex.Side",
          "name": "side",
          "type": "uint8"
        }
      ],
      "name": "getOrderBook",
      "outputs": [
        {
          "components": [
            {
              "internalType": "uint256",
              "name": "id",
              "type": "uint256"
            },
            {
              "internalType": "address",
              "name": "trader",
              "type": "address"
            },
            {
              "internalType": "enum Dex.Side",
              "name": "side",
              "type": "uint8"
            },
            {
              "internalType": "bytes32",
              "name": "ticker",
              "type": "bytes32"
            },
            {
              "internalType": "uint256",
              "name": "amount",
              "type": "uint256"
            },
            {
              "internalType": "uint256",
              "name": "price",
              "type": "uint256"
            }
          ],
          "internalType": "struct Dex.Order[]",
          "name": "",
          "type": "tuple[]"
        }
      ],
      "stateMutability": "view",
      "type": "function",
      "constant": true
    },
    {
      "inputs": [
        {
          "internalType": "uint256",
          "name": "_amount",
          "type": "uint256"
        },
        {
          "internalType": "uint256",
          "name": "_price",
          "type": "uint256"
        },
        {
          "internalType": "bytes32",
          "name": "_ticker",
          "type": "bytes32"
        },
        {
          "internalType": "enum Dex.Side",
          "name": "_side",
          "type": "uint8"
        }
      ],
      "name": "createLimitOrder",
      "outputs": [],
      "stateMutability": "nonpayable",
      "type": "function"
    }
  ],
  "bytecode": "0x608060405260006004553480156200001657600080fd5b50620000376200002b6200003d60201b60201c565b6200004560201b60201c565b62000109565b600033905090565b60008060009054906101000a900473ffffffffffffffffffffffffffffffffffffffff169050816000806101000a81548173ffffffffffffffffffffffffffffffffffffffff021916908373ffffffffffffffffffffffffffffffffffffffff1602179055508173ffffffffffffffffffffffffffffffffffffffff168173ffffffffffffffffffffffffffffffffffffffff167f8be0079c531659141344cd1fd0a4f28419497f9722a3daafe3b4186f6b6457e060405160405180910390a35050565b6125d780620001196000396000f3fe6080604052600436106100dd5760003560e01c80639776aacf1161007f578063a8d2021a11610059578063a8d2021a146102a5578063ba58ea68146102ce578063c9630cb01461030b578063f2fde38b14610334576100dd565b80639776aacf146102165780639a5bf0c41461023f5780639ead722214610268576100dd565b8063439370b1116100bb578063439370b11461018c578063667cb4ba14610196578063715018a6146101d45780638da5cb5b146101eb576100dd565b80630bb431b6146100e2578063163de5e5146101245780631f14df691461014f575b600080fd5b3480156100ee57600080fd5b5061010960048036038101906101049190611a51565b61035d565b60405161011b96959493929190611b7a565b60405180910390f35b34801561013057600080fd5b506101396103f0565b6040516101469190611bdb565b60405180910390f35b34801561015b57600080fd5b5061017660048036038101906101719190611c22565b6103f6565b6040516101839190611bdb565b60405180910390f35b61019461041b565b005b3480156101a257600080fd5b506101bd60048036038101906101b89190611c62565b610514565b6040516101cb929190611c8f565b60405180910390f35b3480156101e057600080fd5b506101e9610558565b005b3480156101f757600080fd5b506102006105e0565b60405161020d9190611cb8565b60405180910390f35b34801561022257600080fd5b5061023d60048036038101906102389190611cd3565b610609565b005b34801561024b57600080fd5b5061026660048036038101906102619190611d38565b610744565b005b34801561027457600080fd5b5061028f600480360381019061028a9190611d9f565b6111a2565b60405161029c9190611dcc565b60405180910390f35b3480156102b157600080fd5b506102cc60048036038101906102c79190611de7565b6111c6565b005b3480156102da57600080fd5b506102f560048036038101906102f09190611e27565b611471565b6040516103029190611fcd565b60405180910390f35b34801561031757600080fd5b50610332600480360381019061032d9190611de7565b6115c0565b005b34801561034057600080fd5b5061035b60048036038101906103569190611fef565b6117da565b005b6005602052826000526040600020602052816000526040600020818154811061038557600080fd5b906000526020600020906005020160009250925050508060000154908060010160009054906101000a900473ffffffffffffffffffffffffffffffffffffffff16908060010160149054906101000a900460ff16908060020154908060030154908060040154905086565b60045481565b6003602052816000526040600020602052806000526040600020600091509150505481565b61049e34600360003373ffffffffffffffffffffffffffffffffffffffff1673ffffffffffffffffffffffffffffffffffffffff16815260200190815260200160002060007f45544800000000000000000000000000000000000000000000000000000000008152602001908152602001600020546118d290919063ffffffff16565b600360003373ffffffffffffffffffffffffffffffffffffffff1673ffffffffffffffffffffffffffffffffffffffff16815260200190815260200160002060007f4554480000000000000000000000000000000000000000000000000000000000815260200190815260200160002081905550565b60026020528060005260406000206000915090508060000154908060010160009054906101000a900473ffffffffffffffffffffffffffffffffffffffff16905082565b6105606118e8565b73ffffffffffffffffffffffffffffffffffffffff1661057e6105e0565b73ffffffffffffffffffffffffffffffffffffffff16146105d4576040517f08c379a00000000000000000000000000000000000000000000000000000000081526004016105cb90612079565b60405180910390fd5b6105de60006118f0565b565b60008060009054906101000a900473ffffffffffffffffffffffffffffffffffffffff16905090565b6106116118e8565b73ffffffffffffffffffffffffffffffffffffffff1661062f6105e0565b73ffffffffffffffffffffffffffffffffffffffff1614610685576040517f08c379a000000000000000000000000000000000000000000000000000000000815260040161067c90612079565b60405180910390fd5b60405180604001604052808381526020018273ffffffffffffffffffffffffffffffffffffffff16815250600260008481526020019081526020016000206000820151816000015560208201518160010160006101000a81548173ffffffffffffffffffffffffffffffffffffffff021916908373ffffffffffffffffffffffffffffffffffffffff16021790555090505060018290806001815401808255809150506001900390600052602060002001600090919091909150555050565b6000600181111561075857610757611af4565b5b81600181111561076b5761076a611af4565b5b141561083b5761078483856119b490919063ffffffff16565b600360003373ffffffffffffffffffffffffffffffffffffffff1673ffffffffffffffffffffffffffffffffffffffff16815260200190815260200160002060007f45544800000000000000000000000000000000000000000000000000000000008152602001908152602001600020541015610836576040517f08c379a000000000000000000000000000000000000000000000000000000000815260040161082d9061210b565b60405180910390fd5b6108fc565b60018081111561084e5761084d611af4565b5b81600181111561086157610860611af4565b5b14156108fb5783600360003373ffffffffffffffffffffffffffffffffffffffff1673ffffffffffffffffffffffffffffffffffffffff16815260200190815260200160002060008481526020019081526020016000205410156108fa576040517f08c379a00000000000000000000000000000000000000000000000000000000081526004016108f19061219d565b60405180910390fd5b5b5b600060056000848152602001908152602001600020600083600181111561092657610925611af4565b5b81526020019081526020016000209050806040518060c0016040528060045481526020013373ffffffffffffffffffffffffffffffffffffffff16815260200184600181111561097957610978611af4565b5b81526020018581526020018781526020018681525090806001815401808255809150506001900390600052602060002090600502016000909190919091506000820151816000015560208201518160010160006101000a81548173ffffffffffffffffffffffffffffffffffffffff021916908373ffffffffffffffffffffffffffffffffffffffff16021790555060408201518160010160146101000a81548160ff02191690836001811115610a3357610a32611af4565b5b0217905550606082015181600201556080820151816003015560a08201518160040155505060046000815480929190610a6b906121ec565b9190505550600080828054905011610a84576000610a96565b60018280549050610a959190612235565b5b905060006001811115610aac57610aab611af4565b5b836001811115610abf57610abe611af4565b5b1415610e1b575b6000811115610e165781600182610add9190612235565b81548110610aee57610aed612269565b5b906000526020600020906005020160040154828281548110610b1357610b12612269565b5b9060005260206000209060050201600401541115610e0357600082600183610b3b9190612235565b81548110610b4c57610b4b612269565b5b90600052602060002090600502016040518060c0016040529081600082015481526020016001820160009054906101000a900473ffffffffffffffffffffffffffffffffffffffff1673ffffffffffffffffffffffffffffffffffffffff1673ffffffffffffffffffffffffffffffffffffffff1681526020016001820160149054906101000a900460ff166001811115610bea57610be9611af4565b5b6001811115610bfc57610bfb611af4565b5b815260200160028201548152602001600382015481526020016004820154815250509050828281548110610c3357610c32612269565b5b906000526020600020906005020183600184610c4f9190612235565b81548110610c6057610c5f612269565b5b9060005260206000209060050201600082015481600001556001820160009054906101000a900473ffffffffffffffffffffffffffffffffffffffff168160010160006101000a81548173ffffffffffffffffffffffffffffffffffffffff021916908373ffffffffffffffffffffffffffffffffffffffff1602179055506001820160149054906101000a900460ff168160010160146101000a81548160ff02191690836001811115610d1757610d16611af4565b5b021790555060028201548160020155600382015481600301556004820154816004015590505080838381548110610d5157610d50612269565b5b90600052602060002090600502016000820151816000015560208201518160010160006101000a81548173ffffffffffffffffffffffffffffffffffffffff021916908373ffffffffffffffffffffffffffffffffffffffff16021790555060408201518160010160146101000a81548160ff02191690836001811115610ddb57610dda611af4565b5b0217905550606082015181600201556080820151816003015560a08201518160040155905050505b8080610e0e90612298565b915050610ac6565b61119a565b600180811115610e2e57610e2d611af4565b5b836001811115610e4157610e40611af4565b5b1415611199575b60008111156111985781600182610e5f9190612235565b81548110610e7057610e6f612269565b5b906000526020600020906005020160040154828281548110610e9557610e94612269565b5b9060005260206000209060050201600401541015611185576000828281548110610ec257610ec1612269565b5b90600052602060002090600502016040518060c0016040529081600082015481526020016001820160009054906101000a900473ffffffffffffffffffffffffffffffffffffffff1673ffffffffffffffffffffffffffffffffffffffff1673ffffffffffffffffffffffffffffffffffffffff1681526020016001820160149054906101000a900460ff166001811115610f6057610f5f611af4565b5b6001811115610f7257610f71611af4565b5b81526020016002820154815260200160038201548152602001600482015481525050905082600183610fa49190612235565b81548110610fb557610fb4612269565b5b9060005260206000209060050201838381548110610fd657610fd5612269565b5b9060005260206000209060050201600082015481600001556001820160009054906101000a900473ffffffffffffffffffffffffffffffffffffffff168160010160006101000a81548173ffffffffffffffffffffffffffffffffffffffff021916908373ffffffffffffffffffffffffffffffffffffffff1602179055506001820160149054906101000a900460ff168160010160146101000a81548160ff0219169083600181111561108d5761108c611af4565b5b021790555060028201548160020155600382015481600301556004820154816004015590505080836001846110c29190612235565b815481106110d3576110d2612269565b5b90600052602060002090600502016000820151816000015560208201518160010160006101000a81548173ffffffffffffffffffffffffffffffffffffffff021916908373ffffffffffffffffffffffffffffffffffffffff16021790555060408201518160010160146101000a81548160ff0219169083600181111561115d5761115c611af4565b5b0217905550606082015181600201556080820151816003015560a08201518160040155905050505b808061119090612298565b915050610e48565b5b5b505050505050565b600181815481106111b257600080fd5b906000526020600020016000915090505481565b80600073ffffffffffffffffffffffffffffffffffffffff166002600083815260200190815260200160002060010160009054906101000a900473ffffffffffffffffffffffffffffffffffffffff1673ffffffffffffffffffffffffffffffffffffffff16141561126d576040517f08c379a00000000000000000000000000000000000000000000000000000000081526004016112649061230e565b60405180910390fd5b82600360003373ffffffffffffffffffffffffffffffffffffffff1673ffffffffffffffffffffffffffffffffffffffff1681526020019081526020016000206000848152602001908152602001600020541015611300576040517f08c379a00000000000000000000000000000000000000000000000000000000081526004016112f79061237a565b60405180910390fd5b61136383600360003373ffffffffffffffffffffffffffffffffffffffff1673ffffffffffffffffffffffffffffffffffffffff1681526020019081526020016000206000858152602001908152602001600020546119ca90919063ffffffff16565b600360003373ffffffffffffffffffffffffffffffffffffffff1673ffffffffffffffffffffffffffffffffffffffff1681526020019081526020016000206000848152602001908152602001600020819055506002600083815260200190815260200160002060010160009054906101000a900473ffffffffffffffffffffffffffffffffffffffff1673ffffffffffffffffffffffffffffffffffffffff1663a9059cbb33856040518363ffffffff1660e01b815260040161142892919061239a565b6020604051808303816000875af1158015611447573d6000803e3d6000fd5b505050506040513d601f19601f8201168201806040525081019061146b91906123fb565b50505050565b606060056000848152602001908152602001600020600083600181111561149b5761149a611af4565b5b8152602001908152602001600020805480602002602001604051908101604052809291908181526020016000905b828210156115b457838290600052602060002090600502016040518060c0016040529081600082015481526020016001820160009054906101000a900473ffffffffffffffffffffffffffffffffffffffff1673ffffffffffffffffffffffffffffffffffffffff1673ffffffffffffffffffffffffffffffffffffffff1681526020016001820160149054906101000a900460ff16600181111561157157611570611af4565b5b600181111561158357611582611af4565b5b81526020016002820154815260200160038201548152602001600482015481525050815260200190600101906114c9565b50505050905092915050565b80600073ffffffffffffffffffffffffffffffffffffffff166002600083815260200190815260200160002060010160009054906101000a900473ffffffffffffffffffffffffffffffffffffffff1673ffffffffffffffffffffffffffffffffffffffff161415611667576040517f08c379a000000000000000000000000000000000000000000000000000000000815260040161165e9061230e565b60405180910390fd5b6002600083815260200190815260200160002060010160009054906101000a900473ffffffffffffffffffffffffffffffffffffffff1673ffffffffffffffffffffffffffffffffffffffff166323b872dd3330866040518463ffffffff1660e01b81526004016116da93929190612428565b6020604051808303816000875af11580156116f9573d6000803e3d6000fd5b505050506040513d601f19601f8201168201806040525081019061171d91906123fb565b5061178183600360003373ffffffffffffffffffffffffffffffffffffffff1673ffffffffffffffffffffffffffffffffffffffff1681526020019081526020016000206000858152602001908152602001600020546118d290919063ffffffff16565b600360003373ffffffffffffffffffffffffffffffffffffffff1673ffffffffffffffffffffffffffffffffffffffff168152602001908152602001600020600084815260200190815260200160002081905550505050565b6117e26118e8565b73ffffffffffffffffffffffffffffffffffffffff166118006105e0565b73ffffffffffffffffffffffffffffffffffffffff1614611856576040517f08c379a000000000000000000000000000000000000000000000000000000000815260040161184d90612079565b60405180910390fd5b600073ffffffffffffffffffffffffffffffffffffffff168173ffffffffffffffffffffffffffffffffffffffff1614156118c6576040517f08c379a00000000000000000000000000000000000000000000000000000000081526004016118bd906124d1565b60405180910390fd5b6118cf816118f0565b50565b600081836118e091906124f1565b905092915050565b600033905090565b60008060009054906101000a900473ffffffffffffffffffffffffffffffffffffffff169050816000806101000a81548173ffffffffffffffffffffffffffffffffffffffff021916908373ffffffffffffffffffffffffffffffffffffffff1602179055508173ffffffffffffffffffffffffffffffffffffffff168173ffffffffffffffffffffffffffffffffffffffff167f8be0079c531659141344cd1fd0a4f28419497f9722a3daafe3b4186f6b6457e060405160405180910390a35050565b600081836119c29190612547565b905092915050565b600081836119d89190612235565b905092915050565b600080fd5b6000819050919050565b6119f8816119e5565b8114611a0357600080fd5b50565b600081359050611a15816119ef565b92915050565b6000819050919050565b611a2e81611a1b565b8114611a3957600080fd5b50565b600081359050611a4b81611a25565b92915050565b600080600060608486031215611a6a57611a696119e0565b5b6000611a7886828701611a06565b9350506020611a8986828701611a3c565b9250506040611a9a86828701611a3c565b9150509250925092565b611aad81611a1b565b82525050565b600073ffffffffffffffffffffffffffffffffffffffff82169050919050565b6000611ade82611ab3565b9050919050565b611aee81611ad3565b82525050565b7f4e487b7100000000000000000000000000000000000000000000000000000000600052602160045260246000fd5b60028110611b3457611b33611af4565b5b50565b6000819050611b4582611b23565b919050565b6000611b5582611b37565b9050919050565b611b6581611b4a565b82525050565b611b74816119e5565b82525050565b600060c082019050611b8f6000830189611aa4565b611b9c6020830188611ae5565b611ba96040830187611b5c565b611bb66060830186611b6b565b611bc36080830185611aa4565b611bd060a0830184611aa4565b979650505050505050565b6000602082019050611bf06000830184611aa4565b92915050565b611bff81611ad3565b8114611c0a57600080fd5b50565b600081359050611c1c81611bf6565b92915050565b60008060408385031215611c3957611c386119e0565b5b6000611c4785828601611c0d565b9250506020611c5885828601611a06565b9150509250929050565b600060208284031215611c7857611c776119e0565b5b6000611c8684828501611a06565b91505092915050565b6000604082019050611ca46000830185611b6b565b611cb16020830184611ae5565b9392505050565b6000602082019050611ccd6000830184611ae5565b92915050565b60008060408385031215611cea57611ce96119e0565b5b6000611cf885828601611a06565b9250506020611d0985828601611c0d565b9150509250929050565b60028110611d2057600080fd5b50565b600081359050611d3281611d13565b92915050565b60008060008060808587031215611d5257611d516119e0565b5b6000611d6087828801611a3c565b9450506020611d7187828801611a3c565b9350506040611d8287828801611a06565b9250506060611d9387828801611d23565b91505092959194509250565b600060208284031215611db557611db46119e0565b5b6000611dc384828501611a3c565b91505092915050565b6000602082019050611de16000830184611b6b565b92915050565b60008060408385031215611dfe57611dfd6119e0565b5b6000611e0c85828601611a3c565b9250506020611e1d85828601611a06565b9150509250929050565b60008060408385031215611e3e57611e3d6119e0565b5b6000611e4c85828601611a06565b9250506020611e5d85828601611d23565b9150509250929050565b600081519050919050565b600082825260208201905092915050565b6000819050602082019050919050565b611e9c81611a1b565b82525050565b611eab81611ad3565b82525050565b611eba81611b4a565b82525050565b611ec9816119e5565b82525050565b60c082016000820151611ee56000850182611e93565b506020820151611ef86020850182611ea2565b506040820151611f0b6040850182611eb1565b506060820151611f1e6060850182611ec0565b506080820151611f316080850182611e93565b5060a0820151611f4460a0850182611e93565b50505050565b6000611f568383611ecf565b60c08301905092915050565b6000602082019050919050565b6000611f7a82611e67565b611f848185611e72565b9350611f8f83611e83565b8060005b83811015611fc0578151611fa78882611f4a565b9750611fb283611f62565b925050600181019050611f93565b5085935050505092915050565b60006020820190508181036000830152611fe78184611f6f565b905092915050565b600060208284031215612005576120046119e0565b5b600061201384828501611c0d565b91505092915050565b600082825260208201905092915050565b7f4f776e61626c653a2063616c6c6572206973206e6f7420746865206f776e6572600082015250565b600061206360208361201c565b915061206e8261202d565b602082019050919050565b6000602082019050818103600083015261209281612056565b9050919050565b7f596f7520646f206e6f74206861766520746865204574682062616c616e63652060008201527f746f20636f6d706c657465207468697300000000000000000000000000000000602082015250565b60006120f560308361201c565b915061210082612099565b604082019050919050565b60006020820190508181036000830152612124816120e8565b9050919050565b7f596f7520646f206e6f74206861766520656e6f75676820746f6b656e7320746f60008201527f20636f6d706c6574652074686973000000000000000000000000000000000000602082015250565b6000612187602e8361201c565b91506121928261212b565b604082019050919050565b600060208201905081810360008301526121b68161217a565b9050919050565b7f4e487b7100000000000000000000000000000000000000000000000000000000600052601160045260246000fd5b60006121f782611a1b565b91507fffffffffffffffffffffffffffffffffffffffffffffffffffffffffffffffff82141561222a576122296121bd565b5b600182019050919050565b600061224082611a1b565b915061224b83611a1b565b92508282101561225e5761225d6121bd565b5b828203905092915050565b7f4e487b7100000000000000000000000000000000000000000000000000000000600052603260045260246000fd5b60006122a382611a1b565b915060008214156122b7576122b66121bd565b5b600182039050919050565b7f546f6b656e20646f6573206e6f74206578697374000000000000000000000000600082015250565b60006122f860148361201c565b9150612303826122c2565b602082019050919050565b60006020820190508181036000830152612327816122eb565b9050919050565b7f42616c616e6365206e6f742073756666696369656e7400000000000000000000600082015250565b600061236460168361201c565b915061236f8261232e565b602082019050919050565b6000602082019050818103600083015261239381612357565b9050919050565b60006040820190506123af6000830185611ae5565b6123bc6020830184611aa4565b9392505050565b60008115159050919050565b6123d8816123c3565b81146123e357600080fd5b50565b6000815190506123f5816123cf565b92915050565b600060208284031215612411576124106119e0565b5b600061241f848285016123e6565b91505092915050565b600060608201905061243d6000830186611ae5565b61244a6020830185611ae5565b6124576040830184611aa4565b949350505050565b7f4f776e61626c653a206e6577206f776e657220697320746865207a65726f206160008201527f6464726573730000000000000000000000000000000000000000000000000000602082015250565b60006124bb60268361201c565b91506124c68261245f565b604082019050919050565b600060208201905081810360008301526124ea816124ae565b9050919050565b60006124fc82611a1b565b915061250783611a1b565b9250827fffffffffffffffffffffffffffffffffffffffffffffffffffffffffffffffff0382111561253c5761253b6121bd565b5b828201905092915050565b600061255282611a1b565b915061255d83611a1b565b9250817fffffffffffffffffffffffffffffffffffffffffffffffffffffffffffffffff0483118215151615612596576125956121bd565b5b82820290509291505056fea26469706673582212206e7549f1166b072e147222239a4376a703849e253dd7c7694112e5d82b6af98a64736f6c634300080b0033",
  "immutableReferences": {},
  "source": "pragma solidity 0.8.11;\nimport \"./Wallet.sol\";\npragma abicoder v2;\n\ncontract Dex is Wallet {\n    using SafeMath for uint256;\n    enum Side{BUY,SELL}\n\n    struct Order{\n        uint256 id;\n        address trader;\n        Side side;\n        bytes32 ticker;\n        uint256 amount;\n        uint256 price;\n    }\n    uint public orderId = 0;\n\n    mapping(bytes32 => mapping(uint256 => Order[])) public orderBook;\n\n    function getOrderBook(bytes32 ticker, Side side) view public returns (Order[] memory){\n        return orderBook[ticker][uint(side)];\n    }\n\n\n    function createLimitOrder(uint256 _amount, uint256 _price, bytes32 _ticker, Side _side) public {\n         if(_side == Side.BUY){\n        require(balances[msg.sender][bytes32(\"ETH\")] >= _amount.mul(_price),\"You do not have the Eth balance to complete this\");\n        }\n        else if(_side == Side.SELL){\n        require(balances[msg.sender][_ticker] >= _amount,\"You do not have enough tokens to complete this\");\n        }\n        \n        \n        Order[] storage orders = orderBook[_ticker][uint(_side)];\n\n        orders.push(\n            Order(orderId, msg.sender, _side, _ticker, _amount, _price)\n           );\n\n       orderId++;\n\n       uint i = orders.length > 0 ? orders.length - 1 :0;\n        \n        if(_side == Side.BUY){\n            for(i; i > 0; i--){\n                if(orders[i].price > orders[i-1].price){\n                    Order memory temp = orders[i-1];\n                    orders[i-1] = orders[i];\n                    orders[i] = temp;\n                }\n            }\n        }\n        else if(_side == Side.SELL){\n            for(i; i > 0; i--){\n                if(orders[i].price < orders[i-1].price){\n                    Order memory temp = orders[i];\n                    orders[i] = orders[i-1];\n                    orders[i-1] = temp;\n                }\n            }\n            \n        }\n\n    }\n\n    \n\n}",
  "sourcePath": "/Users/nikokantarellis/coding/ETH201/DEX/contracts/Dex.sol",
  "compiler": {
    "name": "solc",
    "version": "0.8.11+commit.d7f03943.Emscripten.clang"
  },
  "schemaVersion": "3.4.3",
  "updatedAt": "2022-02-03T21:14:19.925Z",
  "networkType": "ethereum",
  "devdoc": {
    "kind": "dev",
    "methods": {
      "owner()": {
        "details": "Returns the address of the current owner."
      },
      "renounceOwnership()": {
        "details": "Leaves the contract without owner. It will not be possible to call `onlyOwner` functions anymore. Can only be called by the current owner. NOTE: Renouncing ownership will leave the contract without an owner, thereby removing any functionality that is only available to the owner."
      },
      "transferOwnership(address)": {
        "details": "Transfers ownership of the contract to a new account (`newOwner`). Can only be called by the current owner."
      }
    },
    "version": 1
  },
  "userdoc": {
    "kind": "user",
    "methods": {},
    "version": 1
  }
}