{
  "contractName": "Dex",
  "abi": [
    {
      "anonymous": false,
      "inputs": [
        {
          "indexed": true,
          "internalType": "address",
          "name": "previousOwner",
          "type": "address"
        },
        {
          "indexed": true,
          "internalType": "address",
          "name": "newOwner",
          "type": "address"
        }
      ],
      "name": "OwnershipTransferred",
      "type": "event"
    },
    {
      "inputs": [
        {
          "internalType": "bytes32",
          "name": "_ticker",
          "type": "bytes32"
        },
        {
          "internalType": "address",
          "name": "_tokenAddress",
          "type": "address"
        }
      ],
      "name": "addToken",
      "outputs": [],
      "stateMutability": "nonpayable",
      "type": "function"
    },
    {
      "inputs": [
        {
          "internalType": "address",
          "name": "",
          "type": "address"
        },
        {
          "internalType": "bytes32",
          "name": "",
          "type": "bytes32"
        }
      ],
      "name": "balances",
      "outputs": [
        {
          "internalType": "uint256",
          "name": "",
          "type": "uint256"
        }
      ],
      "stateMutability": "view",
      "type": "function",
      "constant": true
    },
    {
      "inputs": [
        {
          "internalType": "uint256",
          "name": "_amount",
          "type": "uint256"
        },
        {
          "internalType": "bytes32",
          "name": "_ticker",
          "type": "bytes32"
        }
      ],
      "name": "deposit",
      "outputs": [],
      "stateMutability": "nonpayable",
      "type": "function"
    },
    {
      "inputs": [],
      "name": "depositEth",
      "outputs": [],
      "stateMutability": "payable",
      "type": "function",
      "payable": true
    },
    {
      "inputs": [
        {
          "internalType": "bytes32",
          "name": "",
          "type": "bytes32"
        },
        {
          "internalType": "uint256",
          "name": "",
          "type": "uint256"
        },
        {
          "internalType": "uint256",
          "name": "",
          "type": "uint256"
        }
      ],
      "name": "orderBook",
      "outputs": [
        {
          "internalType": "uint256",
          "name": "id",
          "type": "uint256"
        },
        {
          "internalType": "address",
          "name": "trader",
          "type": "address"
        },
        {
          "internalType": "enum Dex.Side",
          "name": "side",
          "type": "uint8"
        },
        {
          "internalType": "bytes32",
          "name": "ticker",
          "type": "bytes32"
        },
        {
          "internalType": "uint256",
          "name": "amount",
          "type": "uint256"
        },
        {
          "internalType": "uint256",
          "name": "price",
          "type": "uint256"
        },
        {
          "internalType": "uint256",
          "name": "filled",
          "type": "uint256"
        }
      ],
      "stateMutability": "view",
      "type": "function",
      "constant": true
    },
    {
      "inputs": [],
      "name": "orderId",
      "outputs": [
        {
          "internalType": "uint256",
          "name": "",
          "type": "uint256"
        }
      ],
      "stateMutability": "view",
      "type": "function",
      "constant": true
    },
    {
      "inputs": [],
      "name": "owner",
      "outputs": [
        {
          "internalType": "address",
          "name": "",
          "type": "address"
        }
      ],
      "stateMutability": "view",
      "type": "function",
      "constant": true
    },
    {
      "inputs": [],
      "name": "renounceOwnership",
      "outputs": [],
      "stateMutability": "nonpayable",
      "type": "function"
    },
    {
      "inputs": [
        {
          "internalType": "uint256",
          "name": "",
          "type": "uint256"
        }
      ],
      "name": "tokenList",
      "outputs": [
        {
          "internalType": "bytes32",
          "name": "",
          "type": "bytes32"
        }
      ],
      "stateMutability": "view",
      "type": "function",
      "constant": true
    },
    {
      "inputs": [
        {
          "internalType": "bytes32",
          "name": "",
          "type": "bytes32"
        }
      ],
      "name": "tokenMapping",
      "outputs": [
        {
          "internalType": "bytes32",
          "name": "ticker",
          "type": "bytes32"
        },
        {
          "internalType": "address",
          "name": "tokenAddress",
          "type": "address"
        }
      ],
      "stateMutability": "view",
      "type": "function",
      "constant": true
    },
    {
      "inputs": [
        {
          "internalType": "address",
          "name": "newOwner",
          "type": "address"
        }
      ],
      "name": "transferOwnership",
      "outputs": [],
      "stateMutability": "nonpayable",
      "type": "function"
    },
    {
      "inputs": [
        {
          "internalType": "uint256",
          "name": "_amount",
          "type": "uint256"
        },
        {
          "internalType": "bytes32",
          "name": "_ticker",
          "type": "bytes32"
        }
      ],
      "name": "withdraw",
      "outputs": [],
      "stateMutability": "nonpayable",
      "type": "function"
    },
    {
      "inputs": [
        {
          "internalType": "bytes32",
          "name": "ticker",
          "type": "bytes32"
        },
        {
          "internalType": "enum Dex.Side",
          "name": "side",
          "type": "uint8"
        }
      ],
      "name": "getOrderBook",
      "outputs": [
        {
          "components": [
            {
              "internalType": "uint256",
              "name": "id",
              "type": "uint256"
            },
            {
              "internalType": "address",
              "name": "trader",
              "type": "address"
            },
            {
              "internalType": "enum Dex.Side",
              "name": "side",
              "type": "uint8"
            },
            {
              "internalType": "bytes32",
              "name": "ticker",
              "type": "bytes32"
            },
            {
              "internalType": "uint256",
              "name": "amount",
              "type": "uint256"
            },
            {
              "internalType": "uint256",
              "name": "price",
              "type": "uint256"
            },
            {
              "internalType": "uint256",
              "name": "filled",
              "type": "uint256"
            }
          ],
          "internalType": "struct Dex.Order[]",
          "name": "",
          "type": "tuple[]"
        }
      ],
      "stateMutability": "view",
      "type": "function",
      "constant": true
    },
    {
      "inputs": [
        {
          "internalType": "uint256",
          "name": "_amount",
          "type": "uint256"
        },
        {
          "internalType": "uint256",
          "name": "_price",
          "type": "uint256"
        },
        {
          "internalType": "bytes32",
          "name": "_ticker",
          "type": "bytes32"
        },
        {
          "internalType": "enum Dex.Side",
          "name": "_side",
          "type": "uint8"
        }
      ],
      "name": "createLimitOrder",
      "outputs": [],
      "stateMutability": "nonpayable",
      "type": "function"
    },
    {
      "inputs": [
        {
          "internalType": "uint256",
          "name": "_amount",
          "type": "uint256"
        },
        {
          "internalType": "bytes32",
          "name": "_ticker",
          "type": "bytes32"
        },
        {
          "internalType": "enum Dex.Side",
          "name": "_side",
          "type": "uint8"
        }
      ],
      "name": "createMarketOrder",
      "outputs": [],
      "stateMutability": "nonpayable",
      "type": "function"
    }
  ],
  "bytecode": "0x608060405260006004553480156200001657600080fd5b50620000376200002b6200003d60201b60201c565b6200004560201b60201c565b62000109565b600033905090565b60008060009054906101000a900473ffffffffffffffffffffffffffffffffffffffff169050816000806101000a81548173ffffffffffffffffffffffffffffffffffffffff021916908373ffffffffffffffffffffffffffffffffffffffff1602179055508173ffffffffffffffffffffffffffffffffffffffff168173ffffffffffffffffffffffffffffffffffffffff167f8be0079c531659141344cd1fd0a4f28419497f9722a3daafe3b4186f6b6457e060405160405180910390a35050565b61296480620001196000396000f3fe6080604052600436106100e85760003560e01c80639776aacf1161008a578063ba58ea6811610059578063ba58ea68146102da578063bb10fb1a14610317578063c9630cb014610340578063f2fde38b14610369576100e8565b80639776aacf146102225780639a5bf0c41461024b5780639ead722214610274578063a8d2021a146102b1576100e8565b8063439370b1116100c6578063439370b114610198578063667cb4ba146101a2578063715018a6146101e05780638da5cb5b146101f7576100e8565b80630bb431b6146100ed578063163de5e5146101305780631f14df691461015b575b600080fd5b3480156100f957600080fd5b50610114600480360381019061010f9190611cfe565b610392565b6040516101279796959493929190611e27565b60405180910390f35b34801561013c57600080fd5b5061014561042b565b6040516101529190611e96565b60405180910390f35b34801561016757600080fd5b50610182600480360381019061017d9190611edd565b610431565b60405161018f9190611e96565b60405180910390f35b6101a0610456565b005b3480156101ae57600080fd5b506101c960048036038101906101c49190611f1d565b61054f565b6040516101d7929190611f4a565b60405180910390f35b3480156101ec57600080fd5b506101f5610593565b005b34801561020357600080fd5b5061020c61061b565b6040516102199190611f73565b60405180910390f35b34801561022e57600080fd5b5061024960048036038101906102449190611f8e565b610644565b005b34801561025757600080fd5b50610272600480360381019061026d9190611ff3565b61077f565b005b34801561028057600080fd5b5061029b6004803603810190610296919061205a565b61122a565b6040516102a89190612087565b60405180910390f35b3480156102bd57600080fd5b506102d860048036038101906102d391906120a2565b61124e565b005b3480156102e657600080fd5b5061030160048036038101906102fc91906120e2565b6114f9565b60405161030e919061229b565b60405180910390f35b34801561032357600080fd5b5061033e600480360381019061033991906122bd565b611652565b005b34801561034c57600080fd5b50610367600480360381019061036291906120a2565b61186d565b005b34801561037557600080fd5b50610390600480360381019061038b9190612310565b611a87565b005b600560205282600052604060002060205281600052604060002081815481106103ba57600080fd5b906000526020600020906006020160009250925050508060000154908060010160009054906101000a900473ffffffffffffffffffffffffffffffffffffffff16908060010160149054906101000a900460ff16908060020154908060030154908060040154908060050154905087565b60045481565b6003602052816000526040600020602052806000526040600020600091509150505481565b6104d934600360003373ffffffffffffffffffffffffffffffffffffffff1673ffffffffffffffffffffffffffffffffffffffff16815260200190815260200160002060007f4554480000000000000000000000000000000000000000000000000000000000815260200190815260200160002054611b7f90919063ffffffff16565b600360003373ffffffffffffffffffffffffffffffffffffffff1673ffffffffffffffffffffffffffffffffffffffff16815260200190815260200160002060007f4554480000000000000000000000000000000000000000000000000000000000815260200190815260200160002081905550565b60026020528060005260406000206000915090508060000154908060010160009054906101000a900473ffffffffffffffffffffffffffffffffffffffff16905082565b61059b611b95565b73ffffffffffffffffffffffffffffffffffffffff166105b961061b565b73ffffffffffffffffffffffffffffffffffffffff161461060f576040517f08c379a00000000000000000000000000000000000000000000000000000000081526004016106069061239a565b60405180910390fd5b6106196000611b9d565b565b60008060009054906101000a900473ffffffffffffffffffffffffffffffffffffffff16905090565b61064c611b95565b73ffffffffffffffffffffffffffffffffffffffff1661066a61061b565b73ffffffffffffffffffffffffffffffffffffffff16146106c0576040517f08c379a00000000000000000000000000000000000000000000000000000000081526004016106b79061239a565b60405180910390fd5b60405180604001604052808381526020018273ffffffffffffffffffffffffffffffffffffffff16815250600260008481526020019081526020016000206000820151816000015560208201518160010160006101000a81548173ffffffffffffffffffffffffffffffffffffffff021916908373ffffffffffffffffffffffffffffffffffffffff16021790555090505060018290806001815401808255809150506001900390600052602060002001600090919091909150555050565b6000600181111561079357610792611da1565b5b8160018111156107a6576107a5611da1565b5b1415610876576107bf8385611c6190919063ffffffff16565b600360003373ffffffffffffffffffffffffffffffffffffffff1673ffffffffffffffffffffffffffffffffffffffff16815260200190815260200160002060007f45544800000000000000000000000000000000000000000000000000000000008152602001908152602001600020541015610871576040517f08c379a00000000000000000000000000000000000000000000000000000000081526004016108689061242c565b60405180910390fd5b610937565b60018081111561088957610888611da1565b5b81600181111561089c5761089b611da1565b5b14156109365783600360003373ffffffffffffffffffffffffffffffffffffffff1673ffffffffffffffffffffffffffffffffffffffff1681526020019081526020016000206000848152602001908152602001600020541015610935576040517f08c379a000000000000000000000000000000000000000000000000000000000815260040161092c906124be565b60405180910390fd5b5b5b600060056000848152602001908152602001600020600083600181111561096157610960611da1565b5b81526020019081526020016000209050806040518060e0016040528060045481526020013373ffffffffffffffffffffffffffffffffffffffff1681526020018460018111156109b4576109b3611da1565b5b8152602001858152602001878152602001868152602001600081525090806001815401808255809150506001900390600052602060002090600602016000909190919091506000820151816000015560208201518160010160006101000a81548173ffffffffffffffffffffffffffffffffffffffff021916908373ffffffffffffffffffffffffffffffffffffffff16021790555060408201518160010160146101000a81548160ff02191690836001811115610a7557610a74611da1565b5b0217905550606082015181600201556080820151816003015560a0820151816004015560c08201518160050155505060046000815480929190610ab79061250d565b9190505550600080828054905011610ad0576000610ae2565b60018280549050610ae19190612556565b5b905060006001811115610af857610af7611da1565b5b836001811115610b0b57610b0a611da1565b5b1415610e85575b6000811115610e805781600182610b299190612556565b81548110610b3a57610b3961258a565b5b906000526020600020906006020160040154828281548110610b5f57610b5e61258a565b5b9060005260206000209060060201600401541115610e6d57600082600183610b879190612556565b81548110610b9857610b9761258a565b5b90600052602060002090600602016040518060e0016040529081600082015481526020016001820160009054906101000a900473ffffffffffffffffffffffffffffffffffffffff1673ffffffffffffffffffffffffffffffffffffffff1673ffffffffffffffffffffffffffffffffffffffff1681526020016001820160149054906101000a900460ff166001811115610c3657610c35611da1565b5b6001811115610c4857610c47611da1565b5b81526020016002820154815260200160038201548152602001600482015481526020016005820154815250509050828281548110610c8957610c8861258a565b5b906000526020600020906006020183600184610ca59190612556565b81548110610cb657610cb561258a565b5b9060005260206000209060060201600082015481600001556001820160009054906101000a900473ffffffffffffffffffffffffffffffffffffffff168160010160006101000a81548173ffffffffffffffffffffffffffffffffffffffff021916908373ffffffffffffffffffffffffffffffffffffffff1602179055506001820160149054906101000a900460ff168160010160146101000a81548160ff02191690836001811115610d6d57610d6c611da1565b5b02179055506002820154816002015560038201548160030155600482015481600401556005820154816005015590505080838381548110610db157610db061258a565b5b90600052602060002090600602016000820151816000015560208201518160010160006101000a81548173ffffffffffffffffffffffffffffffffffffffff021916908373ffffffffffffffffffffffffffffffffffffffff16021790555060408201518160010160146101000a81548160ff02191690836001811115610e3b57610e3a611da1565b5b0217905550606082015181600201556080820151816003015560a0820151816004015560c08201518160050155905050505b8080610e78906125b9565b915050610b12565b611222565b600180811115610e9857610e97611da1565b5b836001811115610eab57610eaa611da1565b5b1415611221575b60008111156112205781600182610ec99190612556565b81548110610eda57610ed961258a565b5b906000526020600020906006020160040154828281548110610eff57610efe61258a565b5b906000526020600020906006020160040154101561120d576000828281548110610f2c57610f2b61258a565b5b90600052602060002090600602016040518060e0016040529081600082015481526020016001820160009054906101000a900473ffffffffffffffffffffffffffffffffffffffff1673ffffffffffffffffffffffffffffffffffffffff1673ffffffffffffffffffffffffffffffffffffffff1681526020016001820160149054906101000a900460ff166001811115610fca57610fc9611da1565b5b6001811115610fdc57610fdb611da1565b5b81526020016002820154815260200160038201548152602001600482015481526020016005820154815250509050826001836110189190612556565b815481106110295761102861258a565b5b906000526020600020906006020183838154811061104a5761104961258a565b5b9060005260206000209060060201600082015481600001556001820160009054906101000a900473ffffffffffffffffffffffffffffffffffffffff168160010160006101000a81548173ffffffffffffffffffffffffffffffffffffffff021916908373ffffffffffffffffffffffffffffffffffffffff1602179055506001820160149054906101000a900460ff168160010160146101000a81548160ff0219169083600181111561110157611100611da1565b5b02179055506002820154816002015560038201548160030155600482015481600401556005820154816005015590505080836001846111409190612556565b815481106111515761115061258a565b5b90600052602060002090600602016000820151816000015560208201518160010160006101000a81548173ffffffffffffffffffffffffffffffffffffffff021916908373ffffffffffffffffffffffffffffffffffffffff16021790555060408201518160010160146101000a81548160ff021916908360018111156111db576111da611da1565b5b0217905550606082015181600201556080820151816003015560a0820151816004015560c08201518160050155905050505b8080611218906125b9565b915050610eb2565b5b5b505050505050565b6001818154811061123a57600080fd5b906000526020600020016000915090505481565b80600073ffffffffffffffffffffffffffffffffffffffff166002600083815260200190815260200160002060010160009054906101000a900473ffffffffffffffffffffffffffffffffffffffff1673ffffffffffffffffffffffffffffffffffffffff1614156112f5576040517f08c379a00000000000000000000000000000000000000000000000000000000081526004016112ec9061262f565b60405180910390fd5b82600360003373ffffffffffffffffffffffffffffffffffffffff1673ffffffffffffffffffffffffffffffffffffffff1681526020019081526020016000206000848152602001908152602001600020541015611388576040517f08c379a000000000000000000000000000000000000000000000000000000000815260040161137f9061269b565b60405180910390fd5b6113eb83600360003373ffffffffffffffffffffffffffffffffffffffff1673ffffffffffffffffffffffffffffffffffffffff168152602001908152602001600020600085815260200190815260200160002054611c7790919063ffffffff16565b600360003373ffffffffffffffffffffffffffffffffffffffff1673ffffffffffffffffffffffffffffffffffffffff1681526020019081526020016000206000848152602001908152602001600020819055506002600083815260200190815260200160002060010160009054906101000a900473ffffffffffffffffffffffffffffffffffffffff1673ffffffffffffffffffffffffffffffffffffffff1663a9059cbb33856040518363ffffffff1660e01b81526004016114b09291906126bb565b6020604051808303816000875af11580156114cf573d6000803e3d6000fd5b505050506040513d601f19601f820116820180604052508101906114f3919061271c565b50505050565b606060056000848152602001908152602001600020600083600181111561152357611522611da1565b5b8152602001908152602001600020805480602002602001604051908101604052809291908181526020016000905b8282101561164657838290600052602060002090600602016040518060e0016040529081600082015481526020016001820160009054906101000a900473ffffffffffffffffffffffffffffffffffffffff1673ffffffffffffffffffffffffffffffffffffffff1673ffffffffffffffffffffffffffffffffffffffff1681526020016001820160149054906101000a900460ff1660018111156115f9576115f8611da1565b5b600181111561160b5761160a611da1565b5b815260200160028201548152602001600382015481526020016004820154815260200160058201548152505081526020019060010190611551565b50505050905092915050565b600080600181111561166757611666611da1565b5b82600181111561167a57611679611da1565b5b14156116895760019050611721565b83600360003373ffffffffffffffffffffffffffffffffffffffff1673ffffffffffffffffffffffffffffffffffffffff168152602001908152602001600020600085815260200190815260200160002054101561171c576040517f08c379a000000000000000000000000000000000000000000000000000000000815260040161171390612795565b60405180910390fd5b600090505b60006005600085815260200190815260200160002060008381526020019081526020016000209050600080600090505b82805490508110801561176357508682105b156118645761177b8288611c7790919063ffffffff16565b6117d68483815481106117915761179061258a565b5b9060005260206000209060060201600501548584815481106117b6576117b561258a565b5b906000526020600020906006020160030154611c7790919063ffffffff16565b111561185157611813878483815481106117f3576117f261258a565b5b906000526020600020906006020160050154611b7f90919063ffffffff16565b8382815481106118265761182561258a565b5b90600052602060002090600602016005018190555061184e8783611b7f90919063ffffffff16565b91505b808061185c9061250d565b915050611751565b50505050505050565b80600073ffffffffffffffffffffffffffffffffffffffff166002600083815260200190815260200160002060010160009054906101000a900473ffffffffffffffffffffffffffffffffffffffff1673ffffffffffffffffffffffffffffffffffffffff161415611914576040517f08c379a000000000000000000000000000000000000000000000000000000000815260040161190b9061262f565b60405180910390fd5b6002600083815260200190815260200160002060010160009054906101000a900473ffffffffffffffffffffffffffffffffffffffff1673ffffffffffffffffffffffffffffffffffffffff166323b872dd3330866040518463ffffffff1660e01b8152600401611987939291906127b5565b6020604051808303816000875af11580156119a6573d6000803e3d6000fd5b505050506040513d601f19601f820116820180604052508101906119ca919061271c565b50611a2e83600360003373ffffffffffffffffffffffffffffffffffffffff1673ffffffffffffffffffffffffffffffffffffffff168152602001908152602001600020600085815260200190815260200160002054611b7f90919063ffffffff16565b600360003373ffffffffffffffffffffffffffffffffffffffff1673ffffffffffffffffffffffffffffffffffffffff168152602001908152602001600020600084815260200190815260200160002081905550505050565b611a8f611b95565b73ffffffffffffffffffffffffffffffffffffffff16611aad61061b565b73ffffffffffffffffffffffffffffffffffffffff1614611b03576040517f08c379a0000000000000000000000000000000000000000000000000000000008152600401611afa9061239a565b60405180910390fd5b600073ffffffffffffffffffffffffffffffffffffffff168173ffffffffffffffffffffffffffffffffffffffff161415611b73576040517f08c379a0000000000000000000000000000000000000000000000000000000008152600401611b6a9061285e565b60405180910390fd5b611b7c81611b9d565b50565b60008183611b8d919061287e565b905092915050565b600033905090565b60008060009054906101000a900473ffffffffffffffffffffffffffffffffffffffff169050816000806101000a81548173ffffffffffffffffffffffffffffffffffffffff021916908373ffffffffffffffffffffffffffffffffffffffff1602179055508173ffffffffffffffffffffffffffffffffffffffff168173ffffffffffffffffffffffffffffffffffffffff167f8be0079c531659141344cd1fd0a4f28419497f9722a3daafe3b4186f6b6457e060405160405180910390a35050565b60008183611c6f91906128d4565b905092915050565b60008183611c859190612556565b905092915050565b600080fd5b6000819050919050565b611ca581611c92565b8114611cb057600080fd5b50565b600081359050611cc281611c9c565b92915050565b6000819050919050565b611cdb81611cc8565b8114611ce657600080fd5b50565b600081359050611cf881611cd2565b92915050565b600080600060608486031215611d1757611d16611c8d565b5b6000611d2586828701611cb3565b9350506020611d3686828701611ce9565b9250506040611d4786828701611ce9565b9150509250925092565b611d5a81611cc8565b82525050565b600073ffffffffffffffffffffffffffffffffffffffff82169050919050565b6000611d8b82611d60565b9050919050565b611d9b81611d80565b82525050565b7f4e487b7100000000000000000000000000000000000000000000000000000000600052602160045260246000fd5b60028110611de157611de0611da1565b5b50565b6000819050611df282611dd0565b919050565b6000611e0282611de4565b9050919050565b611e1281611df7565b82525050565b611e2181611c92565b82525050565b600060e082019050611e3c600083018a611d51565b611e496020830189611d92565b611e566040830188611e09565b611e636060830187611e18565b611e706080830186611d51565b611e7d60a0830185611d51565b611e8a60c0830184611d51565b98975050505050505050565b6000602082019050611eab6000830184611d51565b92915050565b611eba81611d80565b8114611ec557600080fd5b50565b600081359050611ed781611eb1565b92915050565b60008060408385031215611ef457611ef3611c8d565b5b6000611f0285828601611ec8565b9250506020611f1385828601611cb3565b9150509250929050565b600060208284031215611f3357611f32611c8d565b5b6000611f4184828501611cb3565b91505092915050565b6000604082019050611f5f6000830185611e18565b611f6c6020830184611d92565b9392505050565b6000602082019050611f886000830184611d92565b92915050565b60008060408385031215611fa557611fa4611c8d565b5b6000611fb385828601611cb3565b9250506020611fc485828601611ec8565b9150509250929050565b60028110611fdb57600080fd5b50565b600081359050611fed81611fce565b92915050565b6000806000806080858703121561200d5761200c611c8d565b5b600061201b87828801611ce9565b945050602061202c87828801611ce9565b935050604061203d87828801611cb3565b925050606061204e87828801611fde565b91505092959194509250565b6000602082840312156120705761206f611c8d565b5b600061207e84828501611ce9565b91505092915050565b600060208201905061209c6000830184611e18565b92915050565b600080604083850312156120b9576120b8611c8d565b5b60006120c785828601611ce9565b92505060206120d885828601611cb3565b9150509250929050565b600080604083850312156120f9576120f8611c8d565b5b600061210785828601611cb3565b925050602061211885828601611fde565b9150509250929050565b600081519050919050565b600082825260208201905092915050565b6000819050602082019050919050565b61215781611cc8565b82525050565b61216681611d80565b82525050565b61217581611df7565b82525050565b61218481611c92565b82525050565b60e0820160008201516121a0600085018261214e565b5060208201516121b3602085018261215d565b5060408201516121c6604085018261216c565b5060608201516121d9606085018261217b565b5060808201516121ec608085018261214e565b5060a08201516121ff60a085018261214e565b5060c082015161221260c085018261214e565b50505050565b6000612224838361218a565b60e08301905092915050565b6000602082019050919050565b600061224882612122565b612252818561212d565b935061225d8361213e565b8060005b8381101561228e5781516122758882612218565b975061228083612230565b925050600181019050612261565b5085935050505092915050565b600060208201905081810360008301526122b5818461223d565b905092915050565b6000806000606084860312156122d6576122d5611c8d565b5b60006122e486828701611ce9565b93505060206122f586828701611cb3565b925050604061230686828701611fde565b9150509250925092565b60006020828403121561232657612325611c8d565b5b600061233484828501611ec8565b91505092915050565b600082825260208201905092915050565b7f4f776e61626c653a2063616c6c6572206973206e6f7420746865206f776e6572600082015250565b600061238460208361233d565b915061238f8261234e565b602082019050919050565b600060208201905081810360008301526123b381612377565b9050919050565b7f596f7520646f206e6f74206861766520746865204574682062616c616e63652060008201527f746f20636f6d706c657465207468697300000000000000000000000000000000602082015250565b600061241660308361233d565b9150612421826123ba565b604082019050919050565b6000602082019050818103600083015261244581612409565b9050919050565b7f596f7520646f206e6f74206861766520656e6f75676820746f6b656e7320746f60008201527f20636f6d706c6574652074686973000000000000000000000000000000000000602082015250565b60006124a8602e8361233d565b91506124b38261244c565b604082019050919050565b600060208201905081810360008301526124d78161249b565b9050919050565b7f4e487b7100000000000000000000000000000000000000000000000000000000600052601160045260246000fd5b600061251882611cc8565b91507fffffffffffffffffffffffffffffffffffffffffffffffffffffffffffffffff82141561254b5761254a6124de565b5b600182019050919050565b600061256182611cc8565b915061256c83611cc8565b92508282101561257f5761257e6124de565b5b828203905092915050565b7f4e487b7100000000000000000000000000000000000000000000000000000000600052603260045260246000fd5b60006125c482611cc8565b915060008214156125d8576125d76124de565b5b600182039050919050565b7f546f6b656e20646f6573206e6f74206578697374000000000000000000000000600082015250565b600061261960148361233d565b9150612624826125e3565b602082019050919050565b600060208201905081810360008301526126488161260c565b9050919050565b7f42616c616e6365206e6f742073756666696369656e7400000000000000000000600082015250565b600061268560168361233d565b91506126908261264f565b602082019050919050565b600060208201905081810360008301526126b481612678565b9050919050565b60006040820190506126d06000830185611d92565b6126dd6020830184611d51565b9392505050565b60008115159050919050565b6126f9816126e4565b811461270457600080fd5b50565b600081519050612716816126f0565b92915050565b60006020828403121561273257612731611c8d565b5b600061274084828501612707565b91505092915050565b7f496e73756666696369656e7420616d6f756e74206f6620746f6b656e73000000600082015250565b600061277f601d8361233d565b915061278a82612749565b602082019050919050565b600060208201905081810360008301526127ae81612772565b9050919050565b60006060820190506127ca6000830186611d92565b6127d76020830185611d92565b6127e46040830184611d51565b949350505050565b7f4f776e61626c653a206e6577206f776e657220697320746865207a65726f206160008201527f6464726573730000000000000000000000000000000000000000000000000000602082015250565b600061284860268361233d565b9150612853826127ec565b604082019050919050565b600060208201905081810360008301526128778161283b565b9050919050565b600061288982611cc8565b915061289483611cc8565b9250827fffffffffffffffffffffffffffffffffffffffffffffffffffffffffffffffff038211156128c9576128c86124de565b5b828201905092915050565b60006128df82611cc8565b91506128ea83611cc8565b9250817fffffffffffffffffffffffffffffffffffffffffffffffffffffffffffffffff0483118215151615612923576129226124de565b5b82820290509291505056fea26469706673582212205826302bcfc9104dabd49d939e5288a9720564b1eb0c7d72ff1f6064b7afc24164736f6c634300080b0033",
  "immutableReferences": {},
  "source": "pragma solidity 0.8.11;\nimport \"./Wallet.sol\";\npragma abicoder v2;\n\ncontract Dex is Wallet {\n    using SafeMath for uint256;\n    enum Side{BUY,SELL}\n\n    struct Order{\n        uint256 id;\n        address trader;\n        Side side;\n        bytes32 ticker;\n        uint256 amount;\n        uint256 price;\n        uint256 filled;\n    }\n    uint public orderId = 0;\n\n    mapping(bytes32 => mapping(uint256 => Order[])) public orderBook;\n\n    function getOrderBook(bytes32 ticker, Side side) view public returns (Order[] memory){\n        return orderBook[ticker][uint(side)];\n    }\n\n\n    function createLimitOrder(uint256 _amount, uint256 _price, bytes32 _ticker, Side _side) public {\n         if(_side == Side.BUY){\n        require(balances[msg.sender][bytes32(\"ETH\")] >= _amount.mul(_price),\"You do not have the Eth balance to complete this\");\n        }\n        else if(_side == Side.SELL){\n        require(balances[msg.sender][_ticker] >= _amount,\"You do not have enough tokens to complete this\");\n        }\n        \n        \n        Order[] storage orders = orderBook[_ticker][uint(_side)];\n\n        orders.push(\n            Order(orderId, msg.sender, _side, _ticker, _amount, _price,0)\n           );\n\n       orderId++;\n\n       uint i = orders.length > 0 ? orders.length - 1 :0;\n        \n        if(_side == Side.BUY){\n            for(i; i > 0; i--){\n                if(orders[i].price > orders[i-1].price){\n                    Order memory temp = orders[i-1];\n                    orders[i-1] = orders[i];\n                    orders[i] = temp;\n                }\n            }\n        }\n        else if(_side == Side.SELL){\n            for(i; i > 0; i--){\n                if(orders[i].price < orders[i-1].price){\n                    Order memory temp = orders[i];\n                    orders[i] = orders[i-1];\n                    orders[i-1] = temp;\n                }\n            }\n            \n        }\n\n    } \n\n    function createMarketOrder(uint256 _amount, bytes32 _ticker, Side _side) public {\n        uint orderBookSide;\n        if(_side == Side.BUY){\n            orderBookSide=1;\n        }\n        else{\n            require(balances[msg.sender][_ticker] >= _amount,\"Insufficient amount of tokens\");\n            orderBookSide=0;\n        }\n        Order[] storage orders = orderBook[_ticker][orderBookSide];\n        uint totalFilled;\n\n        for(uint i = 0; i< orders.length && totalFilled < _amount; i++){\n           if(orders[i].amount.sub(orders[i].filled) > _amount.sub(totalFilled)){\n               orders[i].filled = orders[i].filled.add(_amount);\n               totalFilled = totalFilled.add(_amount);\n           } \n        }\n\n    }\n\n    \n\n}",
  "sourcePath": "/Users/nikokantarellis/coding/ETH201/DEX/contracts/Dex.sol",
  "compiler": {
    "name": "solc",
    "version": "0.8.11+commit.d7f03943.Emscripten.clang"
  },
  "schemaVersion": "3.4.3",
  "updatedAt": "2022-05-04T16:51:21.302Z",
  "networkType": "ethereum",
  "devdoc": {
    "kind": "dev",
    "methods": {
      "owner()": {
        "details": "Returns the address of the current owner."
      },
      "renounceOwnership()": {
        "details": "Leaves the contract without owner. It will not be possible to call `onlyOwner` functions anymore. Can only be called by the current owner. NOTE: Renouncing ownership will leave the contract without an owner, thereby removing any functionality that is only available to the owner."
      },
      "transferOwnership(address)": {
        "details": "Transfers ownership of the contract to a new account (`newOwner`). Can only be called by the current owner."
      }
    },
    "version": 1
  },
  "userdoc": {
    "kind": "user",
    "methods": {},
    "version": 1
  }
}